:020000040800F2
:1000000000000120D50A0008250B0008250B000878
:10001000250B0008250B0008250B00080000000038
:10002000000000000000000000000000250B000898
:10003000250B000800000000250B0008250B000818
:1000400000000000250B0008250B0008250B000808
:10005000250B0008250B0008250B0008250B0008C0
:10006000250B0008250B0008250B000800000000E8
:100070000000000000000000000000000000000080
:100080000000000000000000250B00080000000038
:10009000000000000000000000000000250B000828
:1000A000250B0008250B0008250B0008250B000870
:1000B000250B0008250B0008250B0008250B000860
:1000C000250B0008250B0008250B0008250B000850
:1000D000250B0008250B0008250B00080000000078
:1000E000250B0008250B0008250B00080000000068
:1000F0000000000000000000000000000000000000
:1001000000000000250B0008250B0008250B000847
:1001100000000000000000000000000000000000DF
:1001200000000000000000000000000000000000CF
:1001300000000000000000000000000000000000BF
:10014000000000000000000000000000250B000877
:10015000000000000000000000000000250B000867
:10016000250B0008250B000800000000000000001F
:10017000000000000000000000000000000000007F
:1001800000000000250B0008000000000000000037
:04019000250B000833
:1001940010B5054C237833B9044B13B10448AFF3BD
:1001A40000800123237010BD000000200000000027
:1001B400700B000808B5034B1BB103490348AFF3A8
:1001C400008008BD0000000004000020700B00083F
:1001D400034613F8012B002AFBD1181A0138704783
:1001E40080B483B000AF78600B46FB70FB78012BC2
:1001F40041D17B68554A934206D1554B1B6B544AF7
:1002040043F0010313639BE07B68524A934206D197
:100214004F4B1B6B4E4A43F00203136390E07B6821
:100224004D4A934206D14A4B1B6B494A43F004039F
:10023400136385E07B68494A934206D1444B1B6BA8
:10024400434A43F0080313637AE07B68444A9342C9
:1002540006D13F4B1B6B3E4A43F0100313636FE020
:100264007B68404A93426BD1394B1B6B384A43F04D
:100274008003136364E07B68344A93420CD1344BAB
:100284001B69334A43F001031361314B1B69304A44
:1002940023F00103136153E07B682E4A93420CD18F
:1002A4002B4B1B692A4A43F002031361284B1B6939
:1002B400274A23F00203136142E07B68264A9342F3
:1002C4000CD1234B1B69224A43F004031361204BD6
:1002D4001B691F4A23F00403136131E07B681F4A42
:1002E40093420CD11A4B1B69194A43F0080313615A
:1002F400174B1B69164A23F00803136120E07B683F
:10030400174A93420CD1124B1B69114A43F0100354
:1003140013610F4B1B690E4A23F0100313610FE0A6
:100324007B68104A93420BD1094B1B69084A43F07E
:1003340080031361064B1B69054A23F08003136194
:1003440000BF0C37BD4680BC704700BF00000240B0
:10035400003802400004024000080240000C024041
:1003640000100240001C024080B586B000AF7860E7
:1003740000237B617B681B6801211846FFF730FF6F
:100384007B685B79032B1FD87B685B791A467B6893
:100394001B795B0002FA03F37B617B681B681A68B4
:1003A4007B681B79194603238B40DB4319467B6822
:1003B4001B680A401A607B681B6819687B681B68A5
:1003C4007A690A431A609BE07B685B79042B17D136
:1003D400994BDB687A681279114601228A401146EA
:1003E400954A0B43D360944B9B687A681279114603
:1003F40001228A40D24311468F4A0B40936035E074
:100404007B685B79052B17D18B4B9B687A681279D3
:10041400114601228A401146874A0B439360864B5A
:10042400DB687A681279114601228A40D243114668
:10043400814A0B40D36019E07B685B79062B15D1A8
:100444007D4BDB687A681279114601228A40114695
:10045400794A0B43D360784B9B687A6812791146CA
:1004640001228A401146744A0B4393607B681B79CE
:100474009B08FB747B681B7903F00303BB747B68E4
:100484001B686E4A934224D07B681B686C4A934273
:100494001DD07B681B686B4A934216D07B681B682F
:1004A400694A93420FD07B681B68684A934208D01C
:1004B4007B681B68664A934201D107230AE0002344
:1004C40008E0042306E0032304E0022302E00123FE
:1004D40000E000237B747A7CBB7C9B0002FA03F16E
:1004E4005C4AFB7C023342F82310534B1B687A6846
:1004F4001279114601228A4011464F4A0B43136078
:1005040000237B617B689B791A467B681B795B00BF
:1005140002FA03F37B617B681B689A687B681B792A
:10052400194603238B40DB4319467B681B680A404A
:100534009A607B681B6899687B681B687A690A43C0
:100544009A6000237B617B68DB791A467B681B79A0
:100554005B0002FA03F37B617B681B68DA687B68E3
:100564001B79194603238B40DB4319467B681B68C0
:100574000A40DA607B681B68D9687B681B687A6903
:100584000A43DA6000237B617B681B7A1A467B6826
:100594001B7902FA03F37B617B681B685A687B68EA
:1005A4001B79194601238B40DB4319467B681B6882
:1005B4000A405A607B681B6859687B681B687A69C3
:1005C4000A435A607B685B79022B31D17B681B79C3
:1005D400DB083B747B681B7903F00703FB737B68C0
:1005E4001B683A7C083253F82210FB7B9B000F22D5
:1005F40002FA03F3DB4318467B681B683A7C01402C
:10060400083243F822107B681B683A7C083253F89E
:1006140022107B685B7A1A46FB7B9B0002FA03F389
:1006240018467B681B683A7C0143083243F8221061
:1006340000BF1837BD4680BD003C014000000240A9
:100644000004024000080240000C02400010024076
:10065400001C02400038014080B485B000AF7860CF
:100664000B46FB707B681A69FB7822FA03F3DBB252
:1006740003F00103FB73FB7B18461437BD4680BCB3
:100684007047000080B483B000AF78600B46FB7005
:10069400FB78012B2BD17B68394A934206D1394B25
:1006A4005B6C384A43F48053536463E07B68364A96
:1006B400934206D1334B1B6C324A43F48043136498
:1006C40058E07B68314A934206D12E4B1B6C2D4A6D
:1006D40043F4004313644DE07B682D4A934249D1AF
:1006E400284B5B6C274A43F40053536442E07B6815
:1006F400234A93420CD1234B5B6A224A43F480532E
:100704005362204B5B6A1F4A23F48053536231E0E7
:100714007B681D4A93420CD11A4B1B6A194A43F455
:1007240080431362174B1B6A164A23F480431362F7
:1007340020E07B68154A93420CD1124B1B6A114A84
:1007440043F4004313620F4B1B6A0E4A23F4004325
:1007540013620FE07B680E4A93420BD1094B5B6A2C
:10076400084A43F400535362064B5B6A054A23F478
:100774000053536200BF0C37BD4680BC704700BFB6
:10078400003001400038024000380040003C004086
:100794000034014080B584B000AF78607B681B688A
:1007A40001211846FFF76EFF0023FB607B681B796D
:1007B4009B001A46FB681343FB607B685B79012B43
:1007C40004D1FB6823F40043FB6014E07B685B798D
:1007D400022B04D1FB6843F40043FB600BE07B680D
:1007E4005B79032B07D1FB6823F40043FB60FB68B0
:1007F40043F48063FB607B689B79DB001A46FB68EB
:100804001343FB607B68DB79DB021A46FB68134306
:10081400FB607B681B7A5B001A46FB681343FB6032
:100824007B685B7A1A46FB681343FB607B689B7AA0
:100834005B021A46FB681343FB607B681B68FA681B
:100844001A6000BF1037BD4680BD80B483B000AFCE
:10085400786039607B689A683B681340002B01D04C
:10086400012300E0002318460C37BD4680BC7047C6
:1008740080B584B000AFF860B9607A6027E000BF4B
:100884000221F868FFF7E1FF0346002BF8D0FB686C
:100894001B6803F40063002B0ED0BB681B881A4648
:1008A400FB68DA607B68013B7B607B68013B7B60B3
:1008B400BB680133BB600AE0BB681B781A46FB685F
:1008C400DA607B68013B7B60BB680133BB607B689B
:1008D400002BD4D100BF00BF1037BD4680BD80B40B
:1008E40083B000AF78600B46FB70FB78012B06D118
:1008F4007B681B6843F040027B681A6005E07B68F4
:100904001B6823F040027B681A6000BF0C37BD46A9
:1009140080BC704780B483B000AF78600B46FB7036
:10092400FB78012B06D17B685B6843F004027B688B
:100934005A6005E07B685B6823F004027B685A60B8
:1009440000BF0C37BD4680BC7047000080B483B044
:1009540000AF00237B6002E07B6801337B607B682F
:10096400044A9342F8D900BF00BF0C37BD4680BC8F
:10097400704700BF1FA1070080B584B000AF114BC2
:100984007B6002237B7205237B7300233B7300236C
:10099400FB720223BB720D233B723B1D1846FFF70B
:1009A400E3FC0F233B723B1D1846FFF7DDFC0C23D1
:1009B4003B723B1D1846FFF7D7FC00BF1037BD46FE
:1009C40080BD00BF0004024080B584B000AF0C4B72
:1009D4007B6001237B7201233B720223BB720023E1
:1009E400FB7200233B7300237B730023BB733B1D0B
:1009F4001846FFF7CFFE00BF1037BD4680BD00BFCD
:100A04000038004080B584B000AF094B7B60002300
:100A14003B7200237B720223BB720223FB723B1DD9
:100A24001846FFF7A1FC00BF1037BD4680BD00BFCC
:100A34000000024090B587B000AF224B07F10804D4
:100A44000FCB07C42370FFF7DDFFFFF795FFFFF718
:100A5400BBFF01211C48FFF75DFF00BF00211B48BD
:100A6400FFF7FAFD0346002BF8D0FFF76FFF0121D3
:100A74001548FFF734FF07F108031846FFF7A8FBF2
:100A84000346DBB2FB71FB1D012219460E48FFF73A
:100A9400EFFE07F108031846FFF79AFB024607F139
:100AA400080319460848FFF7E3FE00BF8021064803
:100AB400FFF7CBFE0346002BF8D100210248FFF7D5
:100AC4000EFFCAE7880B000800380040000002400F
:100AD4000D488546AFF300800C480D490D4A0023AC
:100AE40002E0D458C4500433C4188C42F9D30A4ADF
:100AF4000A4C002301E013600432A242FBD300F04D
:100B040011F8FFF797FFFEE7000001200000002026
:100B140000000020A00B0008000000201C000020A2
:100B2400FEE7000070B50D4D0D4C641BA4100026AB
:100B3400A64209D10B4D0C4C00F018F8641BA4100C
:100B44000026A64205D170BD55F8043B98470136EE
:100B5400EEE755F8043B98470136F2E7980B000896
:100B6400980B0008980B00089C0B0008F8B500BF10
:100B7400F8BC08BC9E467047F8B500BFF8BC08BC7A
:040B84009E467047D2
:100B880048616C6C6F2C20776F726C6400000000F9
:040B9800B901000897
:040B9C0095010008B7
:0400000508000AD510
:00000001FF
